:040000000C942F002D
:14005400C0F9A4B0999282F88090CFE5D4E0CDBFDEBFCE5126
:14006800D0400AEA08830024EAE6F0E010E0EA36F10711F028
:14007C000192FBCF0083E4E5F0E0A0E6B0E010E000E00BBF47
:14009000EE35F10721F0C89531960D92F9CF0E946700FFCFCE
:1400A4000E942701442755270BC06627772702C06F5F7F4F43
:1400B8006537E4E07E07D0F34F5F5F4F4017510790F30C945E
:1400CC002C01229700240982088289E0A82EC82E41E050E07B
:1400E000EE24FF2422242ABA8FEF84BB83E081BB8FEF8BBB8D
:1400F40025BA22BAA7C0C89903C081E090E07C01C99903C03F
:1401080082E090E07C01CA9903C083E090E07C01C7018130A5
:14011C00E0E09E0729F582E082BB80E690E0E981FF27E80F50
:14013000F91F208025BA04E110E0B4DF81E082BB80E690E048
:14014400E881FF27E80FF91F208025BA04E110E0A7DF4F5F81
:140158005F4F4931E0E05E0729F40980039409824427552797
:14016C00C7018230E0E09E0719F582E082BB80E690E0EA2D06
:14018000FF27E80FF91F208025BA04E110E08ADF81E082BBDB
:1401940080E690E0EC2DFF27E80FF91F208025BA04E110E0DF
:1401A8007DDF4F5F5F4F4931E0E05E0719F4AA9444275527BA
:1401BC00C7018330E0E09E0711F582E082BB2090600025BABB
:1401D0000024098204E110E065DF81E082BB2090600025BAC6
:1401E4000024088204E110E05BDF00240982088289E0A82ED2
:1401F800C82E4F5F5F4F4931E0E05E0711F44427552789810C
:14020C008A3029F40880039408820024098288818A3018F0E4
:140220006627772702C06881772768838A2D8F3F11F4CA9483
:14023400AA248C2D803018F469E070E002C06C2D7727C62EED
:1402480058CF229608957A936A935A934A93089549915991F1
:06025C00699179910895FB
:00000001FF
