:040000000C942A0032
:040034000C945800D0
:14005400CFE5D4E0CDBFDEBFCE51D0400AEA08830024E0E66F
:14006800F0E010E0E036F10711F00192FBCF0083E4E5F0E03C
:14007C00A0E6B0E010E000E00BBFE435F10721F0C89531967A
:140090000D92F9CF0E949300FFCF8898909A899A919A86E8EC
:1400A40080BD83E389B988E58AB908950A921A922A923A9246
:1400B8004A925A926A927A928A929A920A931A932A933A9348
:1400CC008A939A93AA93BA93EA93FA930FB60A92AA925F9BAB
:1400E000FECFACB00A2D112718D0A99009900FBEF991E991E9
:1400F400B991A9919991899139912991199109919990899026
:140108007990699059904990399029901990099018955D9BB6
:14011C00FECF0CB95E9BFECF08957894B8DFC2DFFFCF08952B
:00000001FF
