:040000000C942F002D
:140054003F065B4F666D7D077F6FCFE5D4E0CDBFDEBFCE51B4
:14006800D0400AEA08830024EAE6F0E010E0EA36F10711F028
:14007C000192FBCF0083E4E5F0E0A0E6B0E010E000E00BBF47
:14009000EE35F10721F0C89531960D92F9CF0E946900FFCFCC
:1400A4000E94F100442755270BC06627772702C06F5F7F4F7A
:1400B8006437E4E07E07D0F34F5F5F4F202E332442155305DD
:1400CC0080F30C94F6004427552766277727AA24BB24EE2446
:1400E000FF2481E090E06C018FEF84BB8FE081BB222425BA1E
:1400F40022BA57C08DEF82BB80E690E0FA01E80FF91F2080CC
:1401080025BA0AE0CBDF8EEF82BB80E690E0FB01E80FF91FD5
:14011C00208025BA0AE0C0DF8BEF82BB80E690E0F501E80F4D
:14013000F91F208025BA0AE0B5DF87EF82BB80E690E0F70125
:14014400E80FF91F208025BA0AE0AADF2AE130E086010E9462
:14015800D5000030010729F44F5F5F4F81E090E06C014A3055
:14016C00E0E05E0721F46F5F7F4F442755276630E0E07E07E7
:1401800029F4C50101965C0166277727C5018A30E0E09E0784
:1401940029F4C70101967C01AA24BB24C60101966C01A8CF6F
:1401A8000895689401C0E894EA92FA928A93EE24FF2480E1B2
:1401BC00000F111FEE1CFF1CE216F30618F0E21AF30A039541
:1401D0008A95A1F716F40E2D1F2D8991F990E99008957A930D
:1201E4006A935A934A9308954991599169917991089540
:00000001FF
