:0C0000000C942A000C944D000C94670036
:14005400CFE5D4E0CDBFDEBFCE51D0400AEA08830024E0E66F
:14006800F0E010E0E236F10711F00192FBCF0083E4E5F0E03A
:14007C00A0E6B0E010E000E00BBFE435F10721F0C89531967A
:140090000D92F9CF0E948100FFCF2A923A928A939A932FB64D
:1400A4002A928091600090916100019690936100809360000B
:1400B8001C01209430942BBA29902FBE99918991399029904E
:1400CC0018952A923A928A939A932FB62A928091600090916E
:1400E0006100019790936100809360001C01209430942BBAA2
:1400F40029902FBE999189913990299018958FEF8ABB8BBBD6
:100108008AE085BF8BB7806C8BBF7894FFCF08954A
:00000001FF
