:040000000C942A0032
:14005400CFE5D4E0CDBFDEBFCE51D0400AEA08830024E0E66F
:14006800F0E010E0E036F10711F00192FBCF0083E4E5F0E03C
:14007C00A0E6B0E010E000E00BBFE435F10721F0C89531967A
:140090000D92F9CF0E946100FFCF0E94E500442755270AC0EC
:1400A400662777276F5F7F4F6537E4E07E07D4F34F5F5F4F79
:1400B800401751079CF30C94EA00442755278FEF8ABB22247C
:1400CC002BBA27BA81E088BB78C0B09902C04F5F5F4F4130A6
:1400E000E0E05E0731F04230E0E05E0709F469C06AC081E07E
:1400F4008BBB04E610E0CFDFB09906C00BE410E0CADFB0994A
:1401080001C05DC082E08BBB04E610E0C2DFB09906C00BE4E4
:14011C0010E0BDDFB09901C050C084E08BBB04E610E0B5DF11
:14013000B09906C00BE410E0B0DFB09901C043C088E08BBB83
:1401440004E610E0A8DFB09906C00BE410E0A3DFB09901C0CC
:1401580036C080E18BBB04E610E09BDFB09906C00BE410E0B4
:14016C0096DFB09901C029C080E28BBB04E610E08EDFB099DF
:1401800006C00BE410E089DFB09901C01CC080E48BBB04E6E4
:1401940010E081DFB09906C00BE410E07CDFB09901C00FC0E5
:1401A80080E88BBB04E610E074DFB09908C00BE410E06FDF2A
:1401BC00B09903C002C022242BBA87CF08957A936A935A934C
:0E01D0004A9308954991599169917991089542
:00000001FF
