:040000000C942A0032
:14005400CFE5D4E0CDBFDEBFCE51D0400AEA08830024E0E66F
:14006800F0E010E0E036F10711F00192FBCF0083E4E5F0E03C
:14007C00A0E6B0E010E000E00BBFE435F10721F0C89531967A
:140090000D92F9CF0E946100FFCF0E94AF00442755270AC022
:1400A400662777276F5F7F4F6537E4E07E07D4F34F5F5F4F79
:1400B800401751079CF30C94B4008FEF8ABB22242BBA27BAD3
:1400CC0083E088BB44C0B09942C040C081E08BBB04E610E0AA
:1400E000DCDFB19901C039C082E08BBB04E610E0D4DFB199CE
:1400F40001C031C084E08BBB04E610E0CCDFB19901C029C023
:1401080088E08BBB04E610E0C4DFB19901C021C080E18BBB25
:14011C0004E610E0BCDFB19901C019C080E28BBB04E610E0F4
:14013000B4DFB19901C011C080E48BBB04E610E0ACDFB199F3
:1401440001C009C080E88BBB04E610E0A4DFB19901C001C046
:14015800BFCFBBCF08957A936A935A934A93089549915991A9
:06016C00699179910895EC
:00000001FF
