:040000000C9430002C
:0B005400C0F9A4B0999282F88090FFE0
:14006000CFE5D4E0CDBFDEBFCE51D0400AEA08830024EBE658
:14007400F0E010E0EB36F10711F00192FBCF0083E4E5F0E025
:14008800A0E6B0E010E000E00BBFEF35F10721F0C895319663
:14009C000D92F9CF0E946800FFCF0E94A001442755270BC01C
:1400B0006627772702C06F5F7F4F6537E4E07E07D0F34F5F5D
:1400C4005F4F4017510790F30C94A5014AE06AE08FE08ABBDA
:1400D8008FEF84BB83E081BB80EF8BBB222425BA22BA28C119
:1400EC008EEF8BBB89B39927807F90705C01803BE0E09E07C5
:1401000001F180EB90E08A159B0534F0C5018037E0E09E07D9
:14011400C9F01AC0C501803DE0E09E0769F0803DE0E09E07E1
:140128008CF0C501803EE0E09E0709F00BC04427662708C0DA
:14013C0044E0662705C048E0662702C042E061E082E082BBC0
:1401500080E690E0E42FFF27E80FF91F208025BA09E110E024
:14016400A0DF81E082BB80E690E0E62FFF27E80FF91F2080AA
:1401780025BA09E110E093DF8DEF8BBB89B39927807F90708B
:14018C005C01803BE0E09E0701F180EB90E08A159B0534F0B2
:1401A000C5018037E0E09E07C9F01AC0C501803DE0E09E07EE
:1401B40069F0803DE0E09E078CF0C501803EE0E09E0709F05E
:1401C8000BC041E0662708C045E0662705C049E0662702C0F3
:1401DC0043E061E082E082BB80E690E0E42FFF27E80FF91FEE
:1401F000208025BA09E110E056DF81E082BB80E690E0E62FE4
:14020400FF27E80FF91F208025BA09E110E049DF8BEF8BBB70
:1402180089B39927807F90705C01803BE0E09E0701F180EBFD
:14022C0090E08A159B0534F0C5018037E0E09E07C9F01AC076
:14024000C501803DE0E09E0769F0803DE0E09E078CF0C50105
:14025400803EE0E09E0709F00BC042E0662708C046E0662785
:1402680005C0442761E002C044E061E082E082BB80E690E075
:14027C00E42FFF27E80FF91F208025BA09E110E00CDF81E081
:1402900082BB80E690E0E62FFF27E80FF91F208025BA09E194
:1402A40010E0FFDE87EF8BBB89B39927807F90705C01803BAA
:1402B800E0E09E0701F180EB90E08A159B0534F0C501803720
:1402CC00E0E09E07C9F01AC0C501803DE0E09E0769F0803D28
:1402E000E0E09E078CF0C501803EE0E09E0709F00BC043E059
:1402F400662708C047E0662705C041E061E002C045E061E09E
:1403080082E082BB80E690E0E42FFF27E80FF91F208025BAA5
:14031C0009E110E0C2DE81E082BB80E690E0E62FFF27E80FAD
:14033000F91F208025BA09E110E0B5DED7CE08957A936A9369
:100344005A934A93089549915991699179910895DD
:00000001FF
