:040000000C948200DA
:140054000000803F002474494B02BA02D2010B024B025D0164
:14006800D2010B024B02BA020B024B02BA02D2010B024B0258
:14007C0088010B025D010B024B02D2011003BA021003D2019A
:140090004B0288014B02BA020B024B02BA02D2010B024B023A
:1400A40088010B025D010B024B02D201200320034006200378
:1400B800200340062003200320032003800C20032003400627
:1400CC00200320034006200320032003200340064006400636
:1400E0004006400620032003B0049001800C200320034006DD
:1400F4002003200340062003200320032003800CCFE5D4E0EC
:14010800CDBFDEBFCE51D0400AEA08830024E8E0F1E011E05E
:14011C00E830F10711F00192FBCF0083ECE5F0E0A0E6B0E027
:1401300011E000E00BBFE430F10721F0C89531960D92F9CF78
:140144000E94DD00FFCF0E947F01442755270BC0662777275B
:1401580002C06F5F7F4F6537E4E07E07D0F34F5F5F4F4017DA
:14016C00510790F30C94840180E881BB82BB88E485BD85B5B6
:14018000806285BD85B5856085BD83E383BD089588E087BBF9
:1401940088BB88E483BF83B7806283BF83B7846083BF222462
:1401A8002CBE08958D9A959A82E88FBD8AE18EBD08954427F2
:1401BC00AA24662780E184BB87E085BBD5DFE2DFEFDF5BC02F
:1401D000989901C041E0999901C04427413019F48CB78D5C00
:1401E4008CBF442311F42CB62CBE9A9901C061E0613009F0C5
:1401F80046C008E510E00E9492011801290180E690E0EA2DAB
:14020C00FF27EE0FFF1FE80FF91F008111810E944F023A93BB
:140220002A931A930A93810192010E947A021801290104E564
:1402340010E00E9492013A932A931A930A93810192010E9406
:1402480010020E941B0217BD06BD26B437B4369427943BBCF9
:14025C002ABC84EB90E0EA2DFF27EE0FFF1FE80FF91F0081E1
:14027000118123E030E00E94490167DFA39489E28A1508F466
:14028400AA24A4CF08956894DA92D12E04C0E894DA92D12E76
:14029800D32617FF04C0109500950F5F1F4F37FF04C03095AA
:1402AC0020952F5F3F4F0E946601D7FE04C0109500950F5F23
:1402C0001F4FD9900895689401C0E894EA92FA928A93EE2446
:1402D400FF2480E1000F111FEE1CFF1CE216F30618F0E21A39
:1402E800F30A03958A95A1F716F40E2D1F2D8991F990E99009
:1402FC0008957A936A935A934A930895499159916991799118
:14031000089500951095209530950F5F1F4F2F4F3F4F089503
:14032400EA93FA930A92E02FF12FC895002D3196C895102D05
:140338003196C895202D3196C895302D0990F991E991089585
:14034C00689401C0E8940E9479030E940B0309F448C0E62C7F
:14036000D52CC42CB32EA22E912E802E008111812281338110
:140374000E940B0309F444C0842D952D8C199D09B9F072F4F7
:140388009095809501964C2C5D2C8831B8F5359527951795F7
:14039C0007950197D1F708C0883118F5B594A79497948794F9
:1403B0000197D1F766242EF0080D191D2A1D3B1D09C0801AE4
:1403C400910AA20AB30A082D192D2A2D3B2D332322F40E94D9
:1403D800890180E8682E0E94340302C00E9469030E948803B3
:1403EC0008950081118122813381C6F70E941303A9F380E87D
:140400003827F2CF082D192D2A2D3B2D4C2C5D2C6E2C33239D
:140414003AF70E94890180E8682EE2CFFA93EA93EC2FFD2F77
:1404280032960E94A601E991F991249608954A925A926A9290
:14043C008A930E941B0311F15520E2F08FE14816C0F487E19C
:140450004816D1F058F4419489EE481A05C035952795179588
:1404640007954A94D1F70EC087E1481A000F111F221F331FD8
:140478004A94D1F705C03FE7232F132F032F04C0662011F0CE
:14048C000E94890189916990599049900895689401C0E89485
:1404A0002227332746F017FD209517FD309503C0689401C04D
:1404B400E8944A925A926A928A9387E1482E5524662436F0D0
:1404C800332322F40E94890180E8682E0E943403899169909E
:1404DC00599049900895FA93EA93EA81FB8127D0E991F991C1
:1404F00022960895FA93EA93EC2FFD2F32961DD0E991F99199
:1405040024960895FA93EA93EA81FB8114D0E991F9913983F7
:1405180028831A930A930895FA93EA93EC2FFD2F329607D04D
:14052C00E991F9913B832A831983088308950A921A922A9284
:140540003A920E9479033A932A931A930A9300811181228133
:1405540033810E941B0309F457C0E62CD52CC42CB32EA22E57
:14056800912E802E09911991299139910E941B03A1F16E2466
:14057C004C185D0880E8481653060CF033C081E848168FEF4F
:1405900058060CF436C080E23324232E122E012E302F2227E2
:1405A4001127002726941794079437952795000F111F221FDC
:1405B800331F001C111C221C331C28F0081819082A083B0839
:1405CC0004C0080C191C2A1C3B1C0AF001608A9551F70E940D
:1405E00034030E948803399029901990099008950FEF102F05
:1405F4002FE73FE7662099F30E948901F0CF0027102F202F05
:14060800302FEBCF0991199129913991EDCF0FD029F06620C3
:14061C0011F00E94890198940895002329F4112319F422230E
:1406300009F433230895F7DF99F08A93632E80E86822220F96
:14064400331F432E8FE7481A55248827580A269530E8232B5C
:1406580033278991989408954424552466240895DEDF09F48F
:14066C000895AA93BA93D2019A938A938EE790E0332349F0C2
:140680003695279517950795A817B907CCF41196F5CF8095D8
:14069400909501962223BAF0000F111F221FA817B90714F0A4
:1406A8001197F6CF0027112722273327899199912D01B99113
:1406BC00A991089533270FEF102F2FE7322F899199912D01D3
:1406D00002C0AA93BA93A7DF49F0D201A158BF4F2D01342DA2
:1406E400220F369527953629B991A99108954A925A926A9206
:1406F8007A928A929A92AA92BA92CA92DA92EA92FA928A9325
:14070C009A93089599918991F990E990D990C990B990A99085
:0E072000999089907990699059904990089528
:00000001FF
