:040000000C942A0032
:14005400CFE5D4E0CDBFDEBFCE51D0400AEA08830024E0E66F
:14006800F0E010E0E036F10711F00192FBCF0083E4E5F0E03C
:14007C00A0E6B0E010E000E00BBFE435F10721F0C89531967A
:140090000D92F9CF0E947100FFCF899A919A539A80B58668B6
:1400A40080BD83E389B908955D9BFECF0CB95E9BFECF0895D9
:1400B8000E947B00442755270BC06627772702C06F5F7F4FDC
:1400CC006537E4E07E07D0F34F5F5F4F4017510790F30C944A
:1400E00080007894DADF05C001E4E0DF08EE13E0E3DFFACFEA
:1400F40008957A936A935A934A930895499159916991799122
:02010800089558
:00000001FF
