:040000000C942E002E
:140054000102040810204080CFE5D4E0CDBFDEBFCE51D040D9
:140068000AEA08830024E8E6F0E010E0E836F10711F00192A9
:14007C00FBCF0083E4E5F0E0A0E6B0E010E000E00BBFEC35B9
:14009000F10721F0C89531960D92F9CF0E946500FFCF0E9451
:1400A4007C00442755270AC0662777276F5F7F4F6537E4E0F4
:1400B8007E07D4F34F5F5F4F4017510798F30C9481008FEFB3
:1400CC008ABB22242BBA10C044270CC080E690E0E42FFF279A
:1400E000E80FF91F20802BBA04E610E0DADF4395483090F312
:1400F400EFCF08957A936A935A934A9308954991599169916E
:04010800799108954C
:00000001FF
