:040000000C9432002A
:040020000C946A00D2
:14005400C0F9A4B0999282F88090000000000000CFE5D4E06E
:14006800CDBFDEBFCE51D0400AEA08830024E0E7F0E010E002
:14007C00E037F10711F00192FBCF0083E4E5F0E0A0E6B0E0D1
:1400900010E000E00BBFE436F10721F0C89531960D92F9CF14
:1400A4000E94FE00FFCF0E944A01442755270BC06627772710
:1400B80002C06F5F7F4F6537E4E07E07D0F34F5F5F4F40177B
:1400CC00510790F30C944F010A921A922A923A924A925A92BD
:1400E0006A927A928A929A920A931A932A933A938A939A939E
:1400F400AA93BA93EA93FA930FB60A9282E082BB80E690E08E
:14010800E0916A00F0916B00E80FF91F208025BA04E110E0B9
:14011C00C6DF80916A0090916B008A30E0E09E0779F4222451
:14013000332430926B0020926A0080916C0090916D00019679
:1401440090936D0080936C0080916C0090916D008A30E0E013
:140158009E0731F42224332430926D0020926C0081E082BB41
:14016C0080E690E0E0916C00F0916D00E80FF91F208025BA50
:1401800004E110E092DF80916E0090916F00019690936F00ED
:1401940080936E0029E130E08C010E9410010030010779F4D7
:1401A8002224332430926F0020926E0080916A0090916B004E
:1401BC00019690936B0080936A008FEF8DBD8EEF8CBD099066
:1401D0000FBEF991E991B991A9919991899139912991199154
:1401E40009919990899079906990599049903990299019903C
:1401F800099018958FEF84BB222425BA83E081BB22BA84E0EC
:14020C008EBD8FEF8DBD8EEF8CBD84E089BF7894FFCF0895E2
:140220006894DA92D12E04C0E894DA92D12ED32617FF04C0E5
:14023400109500950F5F1F4F37FF04C0309520952F5F3F4F10
:140248000E943101D7FE04C0109500950F5F1F4FD990089519
:14025C00689401C0E894EA92FA928A93EE24FF2480E1000F8B
:14027000111FEE1CFF1CE216F30618F0E21AF30A03958A957C
:14028400A1F716F40E2D1F2D8991F990E99008957A936A937A
:100298005A934A930895499159916991799108958A
:00000001FF
