:040000000C942A0032
:14005400CFE5D4E0CDBFDEBFCE51D0400AEA08830024E0E66F
:14006800F0E010E0E036F10711F00192FBCF0083E4E5F0E03C
:14007C00A0E6B0E010E000E00BBFE435F10721F0C89531967A
:140090000D92F9CF0E946100FFCF0E94BF00442755270AC012
:1400A400662777276F5F7F4F6537E4E07E07D4F34F5F5F4F79
:1400B800401751079CF30C94C4008FEF8ABB22242BBA27BAC3
:1400CC0083E088BB54C0B09952C050C081E08BBB04E610E07A
:1400E000DCDFB19903C022242BBA47C082E08BBB04E610E090
:1400F400D2DFB19903C022242BBA3DC084E08BBB04E610E08E
:14010800C8DFB19903C022242BBA33C088E08BBB04E610E089
:14011C00BEDFB19903C022242BBA29C080E18BBB04E610E090
:14013000B4DFB19903C022242BBA1FC080E28BBB04E610E08F
:14014400AADFB19903C022242BBA15C080E48BBB04E610E08D
:14015800A0DFB19903C022242BBA0BC080E88BBB04E610E089
:14016C0096DFB19903C022242BBA01C0AFCFABCF08957A936F
:120180006A935A934A93089549915991699179910895A4
:00000001FF
