:040000000C9432002A
:14005400C0F9A4B0999282F880908883C6A1868ECFE5D4E0E8
:14006800CDBFDEBFCE51D0400AEA08830024E0E7F0E010E002
:14007C00E437F10711F00192FBCF0083E4E5F0E0A0E6B0E0CD
:1400900010E000E00BBFE436F10721F0C89531960D92F9CF14
:1400A4000E94B200FFCF0E94C200442755270BC066277727E5
:1400B80002C06F5F7F4F6537E4E07E07D0F34F5F5F4F40177B
:1400CC00510790F30C94C7008898909A899A919A86E880BD9B
:1400E00083E389B988E18AB908955D9BFECF0CB95E9BFECFCB
:1400F40008954A935F9BFECF4CB1403318F189E3841700F146
:1401080083E182BB2090600025BA0AE010E0C9DF83E282BB2F
:14011C002090610025BA0AE010E0C1DF83E482BB20906200AF
:1401300025BA0AE010E0B9DF83E882BB2090630025BA0AE0E6
:1401440010E0B1DF413418F08AE5841728F4413628F08AE784
:14015800841710F0042FC5DF499108957894B6DF84B38F6FD4
:14016C0084BB25B225BA81B3806F81BB22B222BA01C0BBDF20
:14018000FECF08957A936A935A934A930895499159916991D2
:0401940079910895C0
:00000001FF
