:040000000C943A0022
:14005400000080440000803F00409C45C000F900A400B000E7
:14006800990092008200F80080009000CFE5D4E0CDBFDEBF3E
:14007C00CE51D0400AEA08830024E4E7F0E010E0E437F10700
:1400900011F00192FBCF0083E0E6F0E0A0E6B0E010E000E0FF
:1400A4000BBFE437F10721F0C89531960D92F9CF0E947E00AF
:1400B800FFCF0E94CF01442755270BC06627772702C06F5F87
:1400CC007F4F6537E4E07E07D0F34F5F5F4F4017510790F31C
:1400E0000C94D40184E487B983EC86B90895369A349BFECF38
:1400F40004B115B13498089524978FEF84BB8FE081BB2224AB
:1401080025BA22BAEBDFDAC0EEDFC8010CE510E00E94E201C8
:14011C001801290108E510E00E94E201380149018C010E9478
:1401300028023A932A931A930A93830194010E94C503380101
:14014400490104E510E00E94E2013A932A931A930A938301A7
:1401580094010E946B02810192010E94C5030E94F60108834C
:14016C0019832A833B8388E082BB4AE050E060E070E0088160
:1401800019812A813B817A936A935A934A930E946701180173
:140194002901220C331C441C551CF10180E690E0E80FF91F08
:1401A8002080318025BA0AE010E083DF4AE050E060E070E0ED
:1401BC00088119812A813B817A936A935A934A930E946501C9
:1401D000088319832A833B8384E082BB4AE050E060E070E0FE
:1401E400088119812A813B817A936A935A934A930E9467019F
:1401F80018012901220C331C441C551CF10180E690E0E80FA3
:14020C00F91F2080318025BA0AE010E050DF4AE050E060E0F3
:1402200070E0088119812A813B817A936A935A934A930E947A
:140234006501088319832A833B8382E082BB4AE050E060E085
:1402480070E0088119812A813B817A936A935A934A930E9452
:14025C00670118012901220C331C441C551CF10180E690E0CD
:14027000E80FF91F2080318025BA0AE010E01DDF81E082BBC7
:140284004AE050E060E070E0088119812A813B817A936A93E8
:140298005A934A930E94650118012901220C331C441C551CEF
:1402AC00F10180E690E0E80FF91F2080318025BAAF980AE006
:1402C00010E0FBDE25CF24960895E89401C0689430D0CC24ED
:1402D40009C0E89401C068942AD037FD0E94D901B7FD52D094
:1402E800772488249924AA24BB2442D0C1F045D0B1F0E8E20E
:1402FC00000F111F221F331F771C881C991CAA1CBB1C8816F5
:140310009906AA06BB0628F0881A990AAA0ABB0A0395EA95DC
:1403240059F726F4082D192D2A2D3B2D13C07A928A929A92FA
:14033800AA92BA92CA92EA938A939A93AA93BA938B859C854B
:14034C00AD85BE85C32E0EF0CB260895C7FC0E94D901B99122
:14036000A99199918991E991C990B990A9909990899079906B
:1403740024960895E02FE12BE22BE32B0895E82FE92BEA2B0B
:14038800EB2B089580959095A095B0958F5F9F4FAF4FBF4F12
:14039C0008957A936A935A934A930895499159916991799177
:1403B000089500951095209530950F5F1F4F2F4F3F4F089563
:1403C400EA93FA930A92E02FF12FC895002D3196C895102D65
:1403D8003196C895202D3196C895302D0990F991E9910895E5
:1403EC004A925A926A928A930E94F60211F15520E2F08FE1C9
:140400004816C0F487E14816D1F058F4419489EE481A05C090
:1404140035952795179507954A94D1F70EC087E1481A000FB9
:14042800111F221F331F4A94D1F705C03FE7232F132F032FA6
:14043C0004C0662011F00E94D9018991699059904990089573
:14045000689401C0E8942227332746F017FD209517FD3095E4
:1404640003C0689401C0E8944A925A926A928A9387E1482EC9
:140478005524662436F0332322F40E94D90180E8682E0E94BF
:14048C000F0389916990599049900895FA93EA93EA81FB81E7
:1404A00027D0E991F99122960895FA93EA93EC2FFD2F3296DF
:1404B4001DD0E991F99124960895FA93EA93EA81FB8114D017
:1404C800E991F991398328831A930A930895FA93EA93EC2FA9
:1404DC00FD2F329607D0E991F9913B832A831983088308950E
:1404F0000A921A922A923A920E9454033A932A931A930A935B
:1405040000811181228133810E94F60209F457C0E62CD52CB8
:14051800C42CB32EA22E912E802E09911991299139910E9457
:14052C00F602A1F16E244C185D0880E8481653060CF033C0C8
:1405400081E848168FEF58060CF436C080E23324232E122EC4
:14055400012E302F22271127002726941794079437952795D5
:14056800000F111F221F331F001C111C221C331C28F008189F
:14057C0019082A083B0804C0080C191C2A1C3B1C0AF00160D0
:140590008A9551F70E940F030E946303399029901990099070
:1405A40008950FEF102F2FE73FE7662099F30E94D901F0CFE0
:1405B8000027102F202F302FEBCF0991199129913991EDCFDD
:1405CC000FD029F0662011F00E94D90198940895002329F417
:1405E000112319F4222309F433230895F7DF99F08A93632E84
:1405F40080E86822220F331F432E8FE7481A55248827580AAB
:14060800269530E8232B332789919894089544245524662415
:14061C000895DEDF09F40895AA93BA93D2019A938A938EE7BA
:1406300090E0332349F03695279517950795A817B907CCF4A9
:140644001196F5CF8095909501962223BAF0000F111F221FF7
:14065800A817B90714F01197F6CF0027112722273327899182
:14066C0099912D01B991A991089533270FEF102F2FE7322FF3
:14068000899199912D0102C0AA93BA93A7DF49F0D201A1581D
:14069400BF4F2D01342D220F369527953629B991A99108957D
:1406A8004A925A926A927A928A929A92AA92BA92CA92DA92D6
:1406BC00EA92FA928A939A93089599918991F990E990D9908C
:1406D000C990B990A990999089907990699059904990089598
:1406E4000E945403AA93BA930E94F602E1F1E62CD52CC42C10
:1406F800B32EA22E912E802E00811181228133810E94F602CC
:14070C0071F16E244C0C5D1C80E84816530664F581E84816D5
:140720008FEF58066CF1A29EB12DA02D919E912D802DA09EC9
:14073400800D911DA31FB31F829E800D911DA31FB31F929EC3
:14074800900DA11DB31FA19E900DA11DB31F2B2F1A2F092F29
:14075C00880F001F111F221F331F0E940F03B991A9910E9436
:14077000630308950FEF102F2FE78FE7482EF5CF0027102F09
:14078400202F302FF0CFFA93EA93EC2FFD2F32960E947203C4
:08079800E991F99124960895FE
:00000001FF
