:040000000C942A0032
:14005400CFE5D4E0CDBFDEBFCE51D0400AEA08830024E0E66F
:14006800F0E010E0E036F10711F00192FBCF0083E4E5F0E03C
:14007C00A0E6B0E010E000E00BBFE435F10721F0C89531967A
:140090000D92F9CF0E946100FFCF0E949100442755270AC040
:1400A400662777276F5F7F4F6537E4E07E07D4F34F5F5F4F79
:1400B800401751079CF30C9496008AB38F6F8ABB2BB22BBA7E
:1400CC0028C081E08BBB04E610E0E1DF82E08BBB04E610E075
:1400E000DCDF84E08BBB04E610E0D7DF88E08BBB04E610E08F
:1400F400D2DF80E18BBB04E610E0CDDF80E28BBB04E610E098
:14010800C8DF80E48BBB04E610E0C3DF80E88BBB04E610E08E
:14011C00BEDFD7CF08957A936A935A934A93089549915991BA
:0601300069917991089528
:00000001FF
