:040000000C94370025
:14005400C0F9A4B0999282F880904079243019120278001014
:14006800000001000000CFE5D4E0CDBFDEBFCE51D0400AEACF
:14007C0008830024EAE7F0E010E0EA37F10711F00192FBCFB9
:140090000083E4E5F0E0A0E6B0E010E000E00BBFEE36F10774
:1400A40021F0C89531960D92F9CF0E941702FFCF0E9452022D
:1400B800442755270BC06627772702C06F5F7F4F6537E4E099
:1400CC007E07D0F34F5F5F4F4017510790F30C9457028FEFD3
:1400E0008ABB22242BBA87BB28BA0895C09AC198C298C39873
:1400F400209062002BBA0AE010E0DADFC098C19AC298C39806
:14010800209060002BBA0AE010E0D0DFC098C198C29AC398FD
:14011C00209061002BBA0AE010E0C6DFC098C198C298C39AF2
:14013000209067002BBA08E210E0BCCFC09AC198C298C398F2
:14014400209060002BBA0AE010E0B2DFC098C19AC298C398DF
:14015800209062002BBA0AE010E0A8DFC098C198C29AC398D3
:14016C00209060002BBA0AE010E09EDFC098C198C298C39ACB
:14018000209063002BBA08E210E094CFC09AC198C298C398CE
:14019400209061002BBA0AE010E08ADFC098C19AC298C398B6
:1401A800209071002BBA0AE010E080DFC098C198C29AC3989C
:1401BC00209065002BBA0AE010E076DFC098C198C298C39A9E
:1401D000209064002BBA08E210E06CCF8FE084BB8FEF85BBA1
:1401E40008954A935A9387EF85BB43B35527407F5070403B7E
:1401F800E0E05E0759F180EB90E0841795072CF04037E0E01F
:14020C005E07E1F021C0403DE0E05E0781F0403DE0E05E0712
:14022000CCF0403EE0E05E0709F014C081E090E09093750035
:14023400809374000DC081E090E0909377008093760006C0A8
:1402480081E090E090937900809378008BEF85BB43B355277E
:14025C00407F5070403BE0E05E0739F180EB90E08417950733
:1402700034F04037E0E05E0709F448C047C0403DE0E05E070C
:1402840089F0403DE0E05E070CF43EC0403EE0E05E0709F0B1
:1402980039C082E090E0909375008093740032C022243324D9
:1402AC0030927700209276002BC0B1D081E082BB04E610E0F9
:1402C000F9DE82E082BB04E610E0F4DE84E082BB04E610E08D
:1402D400EFDE88E082BB04E610E0EADE80E182BB04E610E08A
:1402E800E5DE80E282BB04E610E0E0DE80E482BB04E610E08D
:1402FC00DBDE80E882BB04E610E0D6DE222422BA8DEF85BB24
:1403100043B35527407F5070403BE0E05E0709F180EB90E073
:140324008417950734F04037E0E05E0709F442C041C0403D51
:14033800E0E05E0709F43CC0403DE0E05E070CF437C0403E7C
:14034C00E0E05E0709F032C083E090E090937500809374009B
:140360002BC05BD080E882BB04E610E0A3DE80E482BB04E6E8
:1403740010E09EDE80E282BB04E610E099DE80E182BB04E691
:1403880010E094DE88E082BB04E610E08FDE84E082BB04E688
:14039C0010E08ADE82E082BB04E610E085DE81E082BB04E691
:1403B00010E080DE222422BA8EEF85BB43B35527407F50701B
:1403C400403BE0E05E07B9F080EB90E0841795072CF0403737
:1403D800E0E05E0771F00DC0403DE0E05E0749F0403DE0E0A6
:1403EC005E072CF0403EE0E05E0709F000C0599149910895BF
:14040000C4980895C49A089580E881BB222422BA86E685BD80
:140414008BE183BD08958FEF81BB222422BA80EF87BBC69A9E
:1404280028B228BA089557DED5DE36C0D8DE209074003090EF
:14043C007500C1018130E0E09E0749F08230E0E09E0739F0E6
:140450008330E0E09E0729F005C048DE03C06EDE01C094DE3A
:140464002090760030907700222011F4332031F0C1018130F9
:14047800E0E09E0719F003C0C1DF01C0BDDF40917800509118
:14048C0079004030450731F04130E0E05E0709F001C0B4DF23
:1404A000C9CF08957A936A935A934A930895499159916991E4
:0404B400799108959D
:00000001FF
