:040000000C9430002C
:0B005400C0F9A4B0999282F88090FFE0
:14006000CFE5D4E0CDBFDEBFCE51D0400AEA08830024EBE658
:14007400F0E010E0EB36F10711F00192FBCF0083E4E5F0E025
:14008800A0E6B0E010E000E00BBFEF35F10721F0C895319663
:14009C000D92F9CF0E946800FFCF0E941C02442755270BC09F
:1400B0006627772702C06F5F7F4F6537E4E07E07D0F34F5F5D
:1400C4005F4F4017510790F30C942102219700240882662792
:1400D800EE24AA24CC248FE08ABB8FEF84BB8FE081BB80EFB9
:1400EC008BBB222425BA22BA86C18EEF8BBB49B35527407F78
:140100005070403BE0E05E07E9F080EB90E0841795072CF084
:140114004037E0E05E07B1F017C0403DE0E05E0761F0403D53
:14012800E0E05E077CF0403EE0E05E0709F00AC0002408821E
:14013C0007C084E0888304C063E002C082E0C82E81E082BBBA
:1401500080E690E0E881FF27E80FF91F208025BA0AE010E0CE
:14016400A0DF8DEF8BBB49B35527407F5070403BE0E05E07AF
:14017800F1F080EB90E0841795072CF04037E0E05E07B9F01F
:14018C0018C0403DE0E05E0769F0403DE0E05E0784F0403EF8
:1401A000E0E05E0709F00BC000240394088207C085E08883E6
:1401B40004C064E002C083E0C82E81E082BB80E690E0E88137
:1401C800FF27E80FF91F208025BA05E010E067DF82E082BBB5
:1401DC0080E690E0E62FFF27E80FF91F208025BA05E010E09B
:1401F0005ADF8BEF8BBB49B35527407F5070403BE0E05E076B
:14020400E1F080EB90E0841795072CF04037E0E05E07A9F0B2
:1402180016C0403DE0E05E0761F0403DE0E05E0774F0403E85
:14022C00E0E05E0709F009C082E0888306C061E004C065E05A
:1402400002C084E0C82E81E082BB80E690E0E881FF27E80F94
:14025400F91F208025BA05E010E023DF82E082BB80E690E0B3
:14026800E62FFF27E80FF91F208025BA05E010E016DF87EF79
:14027C008BBB49B35527407F5070403BE0E05E07E1F080EB55
:1402900090E0841795072CF04037E0E05E07B1F017C0403D06
:1402A400E0E05E0761F0403DE0E05E077CF0403EE0E05E071F
:1402B80009F00AC083E0888307C062E005C0CC24C39402C02A
:1402CC0085E0C82E81E082BB80E690E0E881FF27E80FF91FB1
:1402E000208025BA05E010E0DEDE82E082BB80E690E0E62F70
:1402F400FF27E80FF91F208025BA05E010E0D1DE4C2D5527C9
:140308004130E0E05E0799F04230E0E05E0701F14330E0E006
:14031C005E0769F14430E0E05E0709F43BC04530E0E05E07E3
:1403300009F44DC066C00881060F1AE00E940402A02E0881F2
:14034400060F0A191AE00E9406021AE00E940402E02E55C004
:140358000881061B1AE00E940402A02E0881061B0A191AE0B0
:14036C000E9406021AE00E940402E02E44C00880069E1AE0F9
:14038000002D0E940402A02E0880069E002D0A191AE00E94AE
:1403940006021AE00E940402E02E31C0162F08810E94060234
:1403A8001AE00E940402A02E162F08810E940602202E2A18C9
:1403BC001AE0022D0E9406021AE00E940402E02E1AC084E06C
:1403D00082BB80E690E0EE2DFF27E80FF91F208025BA0AE04D
:1403E40010E05FDE88E082BB80E690E0EA2DFF27E80FF91F11
:1403F800208025BA0AE010E052DE79CE21960895689401C010
:14040C00E8942A93FA92EA92FF24EE2420E1000FFF1CEE1C31
:14042000E11610F0E11A03952A95B9F70EF40E2DE990F99090
:14043400299108957A936A935A934A9308954991599169912E
:040448007991089509
:00000001FF
