:040000000C942B0031
:010054006447
:14005600CFE5D4E0CDBFDEBFCE51D0400AEA08830024E1E66C
:14006A00F0E010E0E136F10711F00192FBCF0083E4E5F0E039
:14007E00A0E6B0E010E000E00BBFE535F10721F0C895319677
:140092000D92F9CF0E94F202FFCF0E942603442755270AC013
:1400A600662777276F5F7F4F6537E4E07E07D4F34F5F5F4F77
:1400BA00401751079CF30C942B039B993AC038C081E08BBB59
:1400CE00009160001127E3DF989B04C0999B02C09A9901C052
:1400E2002CC080E18BBB009160001127D6DF989B04C0999B6E
:1400F60002C09A9901C01FC022242BBA81E088BB00916000A1
:14010A001127C7DF989B04C0999B02C09A9901C010C080E1F1
:14011E0088BB009160001127BADF222428BA989B04C0999B75
:1401320002C09A9901C001C0C7CF08959B993AC038C082E087
:140146008BBB009160001127A6DF989B04C0999B02C09A9991
:14015A0001C02CC080E28BBB00916000112799DF989B04C0A4
:14016E00999B02C09A9901C01FC022242BBA82E088BB009153
:14018200600011278ADF989B04C0999B02C09A9901C010C0B7
:1401960080E288BB0091600011277DDF222428BA989B04C00C
:1401AA00999B02C09A9901C001C0C7CF08959B993AC038C03D
:1401BE0084E08BBB00916000112769DF989B04C0999B02C025
:1401D2009A9901C02CC080E48BBB0091600011275CDF989BF8
:1401E60004C0999B02C09A9901C01FC022242BBA84E088BBA6
:1401FA000091600011274DDF989B04C0999B02C09A9901C0BB
:14020E0010C080E488BB00916000112740DF222428BA989BC2
:1402220004C0999B02C09A9901C001C0C7CF08959B993AC0F8
:1402360038C088E08BBB0091600011272CDF989B04C0999BAF
:14024A0002C09A9901C02CC080E88BBB0091600011271FDF29
:14025E00989B04C0999B02C09A9901C01FC022242BBA88E039
:1402720088BB00916000112710DF989B04C0999B02C09A99FD
:1402860001C010C080E888BB00916000112703DF222428BAF5
:14029A00989B04C0999B02C09A9901C001C0C7CF089589B33F
:1402AE008170813061F089B38071813041F086B3817081305F
:1402C20021F086B38071813009F4FBDE89B38270813061F036
:1402D60089B38072813041F086B38270813021F086B38072EC
:1402EA00813009F427DF89B38470813061F089B38074813039
:1402FE0041F086B38470813021F086B38074813009F453DFBF
:1403120089B38870813061F089B38078813041F086B388705A
:14032600813021F086B38078813009F47FDF08959A993AC0FA
:14033A0038C0222428BA81E08BBB009160001127A8DE989B06
:14034E0004C0999B02C09B9901C02AC082E08BBB0091600069
:1403620011279BDE989B04C0999B02C09B9901C01DC084E0B3
:140376008BBB0091600011278EDE989B04C0999B02C09B9977
:14038A0001C010C088E08BBB00916000112781DE22242BBA6D
:14039E00989B04C0999B02C09B9901C001C0C7CF08959A9942
:1403B2003AC038C0222428BA80E18BBB0091600011276BDE04
:1403C600989B04C0999B02C09B9901C02AC080E28BBB00911E
:1403DA00600011275EDE989B04C0999B02C09B9901C01DC07C
:1403EE0080E48BBB00916000112751DE989B04C0999B02C00C
:140402009B9901C010C080E88BBB00916000112744DE2224E2
:140416002BBA989B04C0999B02C09B9901C001C0C7CF089517
:14042A009A993AC038C022242BBA81E088BB009160001127A1
:14043E002EDE989B04C0999B02C09B9901C02AC082E088BB2D
:1404520000916000112721DE989B04C0999B02C09B9901C08C
:140466001DC084E088BB00916000112714DE989B04C0999BB8
:14047A0002C09B9901C010C088E088BB00916000112707DE2E
:14048E00222428BA989B04C0999B02C09B9901C001C0C7CFF9
:1404A20008959A993AC038C022242BBA80E188BB00916000C4
:1404B6001127F1DD989B04C0999B02C09B9901C02AC080E2FE
:1404CA0088BB009160001127E4DD989B04C0999B02C09B99D0
:1404DE0001C01DC080E488BB009160001127D7DD989B04C0F1
:1404F200999B02C09B9901C010C080E888BB00916000112767
:14050600CADD222428BA989B04C0999B02C09B9901C001C06F
:14051A00C7CF089589B38170813061F089B38270813041F05B
:14052E0089B38470813021F089B38870813009F4FBDE89B3D0
:140542008071813061F089B38072813041F089B380748130C1
:1405560021F089B38078813009F427DF86B38170813061F06C
:14056A0086B38270813041F086B38470813021F086B3887050
:14057E00813009F453DF86B38071813061F086B38072813081
:1405920041F086B38074813021F086B38078813009F47FDFF8
:1405A60008950895089581E08BBB00916000112772DD85DDE9
:1405BA0082E08BBB0091600011276BDDBBDD84E08BBB009141
:1405CE006000112764DDF1DD88E08BBB0091600011275DDD61
:1405E20027CE8FEF8ABB87BB222424BA2BBA28BA8FE085BB71
:1405F60028C081E08BBB0091600011274CDDD1DF52DED0DF81
:14060A0089DF82E08BBB00916000112742DDC7DF48DEC6DF13
:14061E007FDF84E08BBB00916000112738DDBDDF3EDEBCDF2F
:1406320075DF88E08BBB0091600011272EDDB3DF34DEB2DF49
:140646006BDFD7CF08957A936A935A934A93089549915991DE
:06065A00699179910895F9
:00000001FF
