:0C0000000C9446000C9469000C948300E2
:14008C00CFEFD0E1CDBFDEBFCE51D0400AEA08830024E0E036
:1400A000F1E011E0E230F10711F00192FBCF0083ECE8F0E0FB
:1400B400A0E0B1E010E000E00BBFEC38F10721F0C89531963C
:1400C8000D92F9CF0E949D00FFCF2A923A928A939A932FB6F9
:1400DC002A928091000190910101019690930101809300014F
:1400F0001C01209430942BBA29902FBE999189913990299016
:1401040018952A923A928A939A932FB62A9280910001909194
:140118000101019790930101809300011C01209430942BBA86
:14012C0029902FBE999189913990299018958FEF8ABB8BBB9D
:120140008AE080936A0089B7836089BF7894FFCF0895E4
:00000001FF
